:1000200012EF00F0E86A100E216E000E226EFF0E35
:10003000236EE86A3F01CB6A3F01BB6A3A01506B0D
:100040003F01FF0EC36E3F01BD6A3F01C56A29EF44
:1000500000F0CBB033EF00F0CBB23AEF00F04ED867
:1000600010D829EF00F0CBB273EF00F051EF00F0A1
:1000700029EF00F0CBB073EF00F055EF00F029EF5F
:1000800000F0050E276EFF0E266EFF0E256E252E44
:1000900047EF00F0262E45EF00F0272E43EF00F04B
:1000A0001200202A64EF00F012002006600083F0A6
:1000B000E8FF236264EF00F002D8000012000F0E88
:1000C000206E7EEF00F012002050216470EC00F0F2
:1000D0007EEF00F022627EEF00F078EF00F0120079
:1000E000000E206E1200000E206E7EEF00F0120057
:1000F00018D80F0E206E7EEF00F01200C2DF6000F5
:1001000083F0E8FFF00FF66E1F0EF76E000EF86E2C
:1001100008006F00D7FFE8FF6F00A3FFCDFF29EFB6
:1001200000F0600083F0E8FFF00FF66E1F0EF76E30
:10013000000EF86E08006F00D7FFE8FF6F00A3FF06
:04014000CDFF1200DD
:101FF0003F065B4F666D7D077F67777F393F79715D
:020000040030CA
:0A000000F8FFFFFF9FFFFFFFFFFF67
:00000001FF
