:0400000010EF00F00D
:10002000F90EC56E0C0E216E0D0E206E38EF00F02D
:10003000600087F0E8FF21BE28EF00F0206223EF88
:1000400000F032EF00F020642DEF00F028EF00F018
:10005000CD84020E226E18EF00F0CD82010E226ECA
:1000600018EF00F0CD92CD94000E226E18EF00F044
:10007000600083F0E8FF226E0A0E236A40EF00F072
:10008000232A225EFDE22226230622C062F023C03C
:1000900022F0236A4CEF00F0232A225EFDE22226A2
:1000A000230622C061F023C060F057EF00F060002B
:1000B00087F0E8FF226E0A0E236A5FEF00F0232A22
:1000C000225EFDE22226230622C072F023C022F027
:1000D000236A6BEF00F0232A225EFDE2222623062C
:0C00E00022C071F023C070F018EF00F097
:020000040030CA
:0A000000F8FFFFFF9FFFFFFFFFFF67
:00000001FF
