:04000000FEEFFFF020
:1020000000252E326600696E66006E616E002056F5
:102010000000000E0001E76F35C0EAF036C0EBF0BB
:1020200037C0ECF038C0EDF0EDBF1BEF10F019EF4A
:1020300010F02FEF10F0010EE76FEAC001F0EBC0D7
:1020400002F0ECC003F0EDC004F0A5EC22F001C0FA
:10205000EAF002C0EBF003C0ECF004C0EDF0000EBB
:102060000001E96F000EE86F58C0D7F059C0D8F0F2
:10207000E751D8B43EEF10F040EF10F054EF10F0FD
:10208000E751D8A446EF10F048EF10F04EEF10F0F3
:10209000000ECD6F2B0ECC6F52EF10F0000ECD6FF7
:1020A0002D0ECC6FCCC0E7F0EAC001F0EBC002F01F
:1020B000ECC003F0EDC004F022EC1FF001040210AC
:1020C000D8A465EF10F067EF10F091EF10F0000169
:1020D000E751D8B46EEF10F070EF10F079EF10F018
:1020E000E7C06CF0D707D8A0D807000EE96F010E43
:1020F000E86FE8516C0F016E060E026E88EC22F05C
:102100000001FD0ED727FF0ED82334C00EF06C0E51
:102110000F6ED7C010F0D8C011F044EC21F0DDEF05
:1021200014F0EAC001F0EBC002F0ECC003F0EDC027
:1021300004F022EC1FF001500210D8A4A2EF10F01E
:10214000A4EF10F0BFEF10F00001E751D8B4ABEFEF
:1021500010F0ADEF10F0B6EF10F0E7C06CF0D7075D
:10216000D8A0D807000EE96F010EE86FE8516C0F98
:10217000016E0A0E026E88EC22F080EF10F0000E65
:102180000001EE6F000EEF6F800EF06F3F0EF16FEB
:10219000000ED66F000ED56FEAC001F0EBC002F062
:1021A000ECC003F0EDC004F0000E056E000E066EEC
:1021B000000E076E000E086EBEEC20F0D8B0E3EF04
:1021C00010F0E5EF10F0C4EF11F0F2EF10F0D9C00D
:1021D000EEF0DAC0EFF0DBC0F0F0DCC0F1F00001AF
:1021E000D54BD62BEEC00FF0EFC010F0F0C011F0C1
:1021F000F1C012F0000E136E000E146E200E156E5C
:10220000410E166E3EEC17F00FC0D9F010C0DAF098
:1022100011C0DBF012C0DCF00001D951EA5D016EA3
:10222000DA51EB59026EDB51EC59036EDC51ED597A
:10223000046E75EC21F004BE29EF11F00450031078
:10224000021009E1020E015CD8A029EF11F02BEF7A
:1022500011F0E7EF10F0D9C028F0DAC029F0DBC0A8
:102260002AF0DCC02BF0EAC02CF0EBC02DF0ECC063
:102270002EF0EDC02FF0A0EC1EF0D8A042EF11F030
:1022800044EF11F0E7EF10F00001EE51EA5D016E4E
:10229000EF51EB59026EF051EC59036EF151ED59CB
:1022A000046E75EC21F004BE63EF11F004500310CE
:1022B000021007E1020E015CD8B061EF11F063EF8C
:1022C00011F0ABEF11F0EEC0EAF0EFC0EBF0F0C0B0
:1022D000ECF0F1C0EDF0C4EF11F0EEC001F0EFC092
:1022E00002F0F0C003F0F1C004F0000E056E000E25
:1022F000066E200E076E410E086E65EC19F001C0E7
:10230000EEF002C0EFF003C0F0F004C0F1F0000105
:10231000D507D8A0D607EE51EA5D016EEF51EB5913
:10232000026EF051EC59036EF151ED59046E75ECEB
:1023300021F004BEA9EF11F004500310021007E1D0
:10234000020E015CD8B0A7EF11F0A9EF11F0ABEFCE
:1023500011F063EF11F0EAC028F0EBC029F0ECC0F7
:102360002AF0EDC02BF0EEC02CF0EFC02DF0F0C045
:102370002EF0F1C02FF0A0EC1EF0D8A0C2EF11F0AB
:10238000C4EF11F06DEF11F039C0CFF0CFC0D0F035
:102390005BBECDEF11F0CFEF11F0D5EF11F05AC0C9
:1023A000C8F05BC0C9F0DAEF11F0000E0001C96F90
:1023B000060EC86FC8C0D3F0C9C0D4F00001D34B1B
:1023C000D42B660ED019D8A4E8EF11F0EAEF11F083
:1023D0000AEF12F0D6BFF1EF11F0EFEF11F0FDEFC1
:1023E00011F0000EEE6F000EEF6F800EF06F3F0EDB
:1023F000F16F000ED66F000ED56F670ECF19D8B4EF
:1024000004EF12F006EF12F00AEF12F0D551D327C5
:10241000D651D423000EDE6F000EDD6FEAC0DFF070
:10242000EBC0E0F0ECC0E1F0EDC0E2F0EEC0D9F0BE
:10243000EFC0DAF0F0C0DBF0F1C0DCF09BEF12F09F
:10244000DFC001F0E0C002F0E1C003F0E2C004F040
:10245000EEC005F0EFC006F0F0C007F0F1C008F0E4
:1024600065EC19F001C01AF002C01BF003C01CF0AB
:1024700004C01DF032EC1BF01AC0E3F01BC0E4F006
:102480001CC0E5F01DC0E6F0E3C001F0E4C002F0BE
:10249000E5C003F0E6C004F01DEC1EF001C0D1F071
:1024A00002C0D2F0DFC028F0E0C029F0E1C02AF07D
:1024B000E2C02BF0E3C013F0E4C014F0E5C015F067
:1024C000E6C016F0EEC00FF0EFC010F0F0C011F053
:1024D000F1C012F03EEC17F00FC02CF010C02DF040
:1024E00011C02EF012C02FF0C5EC21F028C0DFF093
:1024F00029C0E0F02AC0E1F02BC0E2F0EEC001F00C
:10250000EFC002F0F0C003F0F1C004F0000E056E61
:10251000000E066E200E076E410E086E65EC19F077
:1025200001C0EEF002C0EFF003C0F0F004C0F1F023
:102530000001DD4BDE2BD351DD5DDE51800A3A6EAA
:10254000D451800A3A58D8A0A8EF12F0AAEF12F09E
:1025500020EF12F0EEC00FF0EFC010F0F0C011F05D
:10256000F1C012F0000E136E000E146EA00E156E68
:10257000400E166E3EEC17F00FC0E3F010C0E4F012
:1025800011C0E5F012C0E6F0DFC028F0E0C029F08D
:10259000E1C02AF0E2C02BF0E3C02CF0E4C02DF043
:1025A000E5C02EF0E6C02FF0A0EC1EF0D8B0DBEFB7
:1025B00012F0DDEF12F0E8EF12F0000E0001E36F11
:1025C000000EE46F000EE56F000EE66F11EF13F0E2
:1025D000DFC001F0E0C002F0E1C003F0E2C004F0AF
:1025E000E3C005F0E4C006F0E5C007F0E6C008F07F
:1025F000BEEC20F0D8A0FFEF12F001EF13F011EFC6
:1026000013F00001D1B107EF13F009EF13F011EF50
:1026100013F0000EE36F000EE46F000EE56F000E86
:10262000E66FEAC001F0EBC002F0ECC003F0EDC0D1
:1026300004F0E3C005F0E4C006F0E5C007F0E6C032
:1026400008F0DEEC14F001C0DFF002C0E0F003C0DF
:10265000E1F004C0E2F0DFC028F0E0C029F0E1C002
:102660002AF0E2C02BF0000E136E000E146E200E46
:10267000156E410E166ED9C00FF0DAC010F0DBC037
:1026800011F0DCC012F03EEC17F00FC02CF010C0BF
:102690002DF011C02EF012C02FF0A0EC1EF0D8A02B
:1026A00054EF13F056EF13F07FEF13F00001D54B0A
:1026B000D62BD9C00FF0DAC010F0DBC011F0DCC0AF
:1026C00012F0000E136E000E146E200E156E410EE9
:1026D000166E3EEC17F00FC0D9F010C0DAF011C042
:1026E000DBF012C0DCF0660E0001D019D8A47BEF3D
:1026F00013F07DEF13F07FEF13F0D34BD42BD9C041
:10270000EEF0DAC0EFF0DBC0F0F0DCC0F1F0D5C0E5
:10271000C6F0D6C0C7F0000E0001CE6F000ECB6F22
:10272000000ECA6F000EDE6F000EDD6F77EF14F043
:10273000DFC001F0E0C002F0E1C003F0E2C004F04D
:10274000EEC005F0EFC006F0F0C007F0F1C008F0F1
:1027500065EC19F001C01AF002C01BF003C01CF0B8
:1027600004C01DF032EC1BF01AC0E3F01BC0E4F013
:102770001CC0E5F01DC0E6F0E3C001F0E4C002F0CB
:10278000E5C003F0E6C004F01DEC1EF002BED4EF7D
:1027900013F0025007E10A0E015CD8B0D2EF13F03B
:1027A000D4EF13F0E4EF13F0E3C001F0E4C002F063
:1027B000E5C003F0E6C004F01DEC1EF001C0D1F04E
:1027C00002C0D2F0E9EF13F0000E0001D26F090E43
:1027D000D16F0001CE51D8A4F0EF13F0F2EF13F057
:1027E00016EF14F0C7BFF9EF13F0F7EF13F016EF81
:1027F00014F0E8516C0FD96EDA6A2E0EDF6EE84BDA
:10280000E92BD707D8A0D807010ECE6F16EF14F02A
:10281000E8516C0FD96EDA6A300EDF6EE84BE92BA7
:10282000D707D8A0D807CA07D8A0CB07CA51CB1161
:10283000D8A41DEF14F01FEF14F008EF14F0E851C6
:102840006C0FD96EDA6AD151300FDF6EE84BE92B8D
:10285000D707D8A0D807DFC028F0E0C029F0E1C032
:102860002AF0E2C02BF0E3C013F0E4C014F0E5C09E
:1028700015F0E6C016F0EEC00FF0EFC010F0F0C09B
:1028800011F0F1C012F03EEC17F00FC02CF010C0A8
:102890002DF011C02EF012C02FF0C5EC21F028C091
:1028A000DFF029C0E0F02AC0E1F02BC0E2F0EEC07A
:1028B00001F0EFC002F0F0C003F0F1C004F0000E30
:1028C000056E000E066E200E076E410E086E65EC5A
:1028D00019F001C0EEF002C0EFF003C0F0F004C048
:1028E000F1F00001C607D8A0C707DD4BDE2BD3519E
:1028F000DD5DDE51800A3A6ED451800A3A58D8B074
:1029000084EF14F086EF14F094EF14F0E9BF92EF27
:1029100014F0E95109E14B0EE85DD8A092EF14F0F4
:1029200094EF14F098EF13F0000EDE6F4F0EDD6F92
:10293000DD516C0FD96EDA6ADF6AE8516C08DD256B
:10294000016E6C0E026EE8C003F0E9C004F00AEC00
:1029500022F00001E851DD5DE86FE951DE59E96FD1
:10296000E751D8A4B6EF14F0B9EF14F0010EBAEFA6
:1029700014F0000EDD6FDE6BE751D8B4C2EF14F037
:10298000C4EF14F0CEEF14F0E807D8A0E907E8513F
:102990006C0FD96EDA6A60009FF3DFFFDD51D75FFD
:1029A000DE51D85B34C00EF0E8516C0F0F6ED7C00B
:1029B00010F0D8C011F044EC21F012000450800B4C
:1029C0000D6E045004240F6E03AEE9EF14F0EBEF2C
:1029D00014F0ECEF14F00F800F50D8B4F2EF14F0B5
:1029E000F4EF14F009EF15F00F28D8A4FAEF14F063
:1029F000FCEF14F004EF15F0000E016E000E026EF5
:102A0000000E036E000E046E038E000E046E11EFB6
:102A100015F0000E016E000E026E000E036E000E29
:102A2000046E0850800B0E6E0D500E18D8B41BEFBC
:102A300015F01DEF15F01EEF15F00D8C0850082451
:102A40000E6E07AE26EF15F028EF15F029EF15F002
:102A50000E800E50D8B42FEF15F031EF15F046EF81
:102A600015F00E28D8A437EF15F039EF15F041EF27
:102A700015F0000E056E000E066E000E076E000EBD
:102A8000086E078E000E086E4EEF15F0000E056EF4
:102A9000000E066E000E076E000E086E0F500E5CE4
:102AA000D8B055EF15F057EF15F07EEF15F00DACDF
:102AB0005CEF15F05EEF15F060EF15F0800E0D1A6B
:102AC0000FC010F00EC00FF010C00EF001C010F0DB
:102AD00005C001F010C005F002C010F006C002F001
:102AE00010C006F003C010F007C003F010C007F0DC
:102AF00004C010F008C004F010C008F0000E106E02
:102B00000F500EC009F00A6A095E000E0A5A0ABE8A
:102B100093EF15F00A5009E11A0E095CD8A093EF63
:102B200015F095EF15F0CCEF15F0015002100310E1
:102B30000410D8A49EEF15F0A1EF15F0010EA2EF3E
:102B400015F0000E106E000E016E000E026E000EEB
:102B5000036E000E046E0EC00FF0D5EF15F010A03E
:102B6000B4EF15F0B6EF15F0BCEF15F0D8901030BB
:102B70000109106EBEEF15F0D890103201A0C3EF1E
:102B800015F0C5EF15F0C6EF15F0108E04340432C1
:102B90000332023201320F2A0E500F5CD8A0D3EF5D
:102BA00015F0D5EF15F0AFEF15F00DBCDAEF15F01D
:102BB000DCEF15F01CEF16F00F50D8A4E2EF15F083
:102BC000E4EF15F0EEEF15F0000E016E000E026E50
:102BD000000E036E000E046E3DEF17F00550012647
:102BE00006500222075003220850042204A0FBEFE3
:102BF00015F0FDEF15F0A9EF16F010A002EF16F09A
:102C000004EF16F00AEF16F0D89010300109106E9C
:102C10000CEF16F0D890103201A011EF16F013EF60
:102C200016F014EF16F0108E043404320332023220
:102C300001320F2AA9EF16F00550015C0650025828
:102C4000075003580450800A096E0850800A09583A
:102C5000D8B02DEF16F02FEF16F05AEF16F0015006
:102C6000055C096E025006580A6E035007580B6E39
:102C7000045008580C6EFF0E0924016EFF0E0A2046
:102C8000026EFF0E0B20036EFF0E0C20046E800EF2
:102C90000D1A106C1050D8A450EF16F052EF16F029
:102CA00062EF16F0010E0126000E0222032204221A
:102CB00062EF16F00550015E0650025A0750035AA3
:102CC0000850045A0150021003100410D8A46BEFEE
:102CD00016F06DEF16F0A2EF16F01050D8A473EFB7
:102CE00016F075EF16F0A2EF16F0000E016E000E52
:102CF000026E000E036E000E046E3DEF17F0D890CA
:102D0000013602360336043610AE89EF16F08BEF2B
:102D100016F08CEF16F0018010A091EF16F093EFF3
:102D200016F097EF16F0D880103699EF16F0D8907D
:102D300010360F50D8B49FEF16F0A1EF16F0A2EFA7
:102D400016F00F0603AEA7EF16F0A9EF16F07FEF0F
:102D500016F0000E0E6E10AEB0EF16F0B2EF16F0D9
:102D6000CAEF16F010C009F07F0E0916D8B4BBEFF9
:102D700016F0BDEF16F0C1EF16F0010E0E6ECAEFA1
:102D800016F001A0C6EF16F0C8EF16F0CAEF16F065
:102D9000BDEF16F00E50D8B4D0EF16F0D2EF16F00B
:102DA000FDEF16F0010E0126000E0222032204227E
:102DB00004A0DDEF16F0DFEF16F0FDEF16F001C016
:102DC00009F002C00AF003C00BF004C00CF00C3490
:102DD0000C320B320A32093209C001F00AC002F08B
:102DE0000BC003F00CC004F00F28D8B4FAEF16F0B3
:102DF000FCEF16F0FDEF16F00F2A0F28D8B403EF02
:102E000017F005EF17F00DEF17F00F50D8A40BEFE8
:102E100017F00DEF17F01FEF17F0000E016E000E08
:102E2000026E000E036E000E046E0F50D8A41BEF4E
:102E300017F01DEF17F01FEF17F0000E0D6E0FA02B
:102E400024EF17F026EF17F029EF17F0038E2AEF83
:102E500017F0039ED8900F30046E0DAE32EF17F0CE
:102E600034EF17F035EF17F0048E01C001F002C007
:102E700002F003C003F004C004F012001250800BF3
:102E80001B6E12501224216E11AE49EF17F04BEF5A
:102E900017F04CEF17F021802150D8B452EF17F003
:102EA00054EF17F067EF17F02128D8A45AEF17F066
:102EB0005CEF17F064EF17F0000E0F6E000E106E4F
:102EC000000E116E000E126E118E6FEF17F0000ED5
:102ED0000F6E000E106E000E116E000E126E165068
:102EE000800B1B1A16501624206E15AE7AEF17F0C1
:102EF0007CEF17F07DEF17F020802050D8B483EFDF
:102F000017F085EF17F098EF17F02028D8A48BEF73
:102F100017F08DEF17F095EF17F0000E136E000EFF
:102F2000146E000E156E000E166E158EA0EF17F0C3
:102F3000000E136E000E146E000E156E000E166E4F
:102F40002050D8B4A6EF17F0A8EF17F0B0EF17F0A5
:102F50002150D8A4AEEF17F0B0EF17F0BAEF17F08A
:102F6000000E0F6E000E106E000E116E000E126E2F
:102F700064EF19F015500F026F00CCFF26F06F00C0
:102F8000D0FF27F026501C6E1D6A1E6A1F6A27504C
:102F9000226E236A246A256A145010026F00CCFF47
:102FA00026F06F00D0FF27F026501C26000E1D22B1
:102FB0001E221F2227502226000E232224222522F1
:102FC000135011026F00CCFF26F06F00D0FF27F0E6
:102FD00026501C26000E1D221E221F2227502226AC
:102FE000000E2322242225221EC01FF01DC01EF029
:102FF0001CC01DF01C6A135010026F00CCFF26F09D
:103000006F00D0FF27F026501C2627501D22000EEF
:103010001E22000E1F2214500F026F00CCFF26F05C
:103020006F00D0FF27F026501C2627501D22000ECF
:103030001E22000E1F221EC01FF01DC01EF01CC04D
:103040001DF01C6A13500F026F00CCFF26F06F00BA
:10305000D0FF27F026501C2627501D22000E1E22CE
:10306000000E1F22155010026F00CCFF26F06F00DB
:10307000D0FF27F02650222627502322000E24229C
:10308000000E2522145011026F00CCFF26F06F00B5
:10309000D0FF27F02650222627502322000E24227C
:1030A000000E2522155011026F00CCFF26F06F0094
:1030B000D0FF27F02650176E2750186E196A1A6A2B
:1030C00019C01AF018C019F017C018F0176A175075
:1030D000222618502322195024221A5025221CC0BF
:1030E00017F01DC018F01EC019F01FC01AF0190EFD
:1030F0007FEF18F0D8901A32193218321732E82EB2
:103100007AEF18F017502226185023221950242243
:103110001A5025221EC01FF01DC01EF01CC01DF03D
:103120001C6A205021C017F0186A1726000E1822BA
:10313000820E1724266EFF0E1820276EB5EF18F0AA
:10314000D89022362336243625361FAEAAEF18F043
:10315000ACEF18F0ADEF18F02280D8901C361D3679
:103160001E361F362606D8A0270624AEBAEF18F062
:10317000BCEF18F0A0EF18F0000E206E1FAEC3EFEA
:1031800018F0C5EF18F0E9EF18F0FF0E1C14176ED9
:10319000FF0E1D14186EFF0E1E14196E7F0E1F14E5
:1031A0001A6E1750181019101A10D8B4DAEF18F058
:1031B000DCEF18F0E0EF18F0010E206EE9EF18F0E8
:1031C00022A0E5EF18F0E7EF18F0E9EF18F0DCEFD8
:1031D00018F02050D8B4EFEF18F0F1EF18F015EF19
:1031E00019F0010E2226000E23222422252225A0DA
:1031F000FCEF18F0FEEF18F015EF19F022C017F0F1
:1032000023C018F024C019F025C01AF01A341A325D
:1032100019321832173217C022F018C023F019C023
:1032200024F01AC025F0264A272A27BE20EF19F0DD
:10323000275008E12628D8A020EF19F022EF19F036
:103240002CEF19F0000E226E000E236E800E246EFD
:103250007F0E256E5AEF19F027BE39EF19F027506F
:1032600006E12604D8B037EF19F039EF19F045EF31
:1032700019F0000E226E000E236E000E246E000E5A
:10328000256E000E1B6E5AEF19F026C021F0FF0EBE
:103290002216FF0E23167F0E2416000E251621A0DF
:1032A00054EF19F056EF19F057EF19F0248ED8901B
:1032B0002130256E1B50251222C00FF023C010F0C4
:1032C00024C011F025C012F012000450800B116EC2
:1032D00004500424186E03AE70EF19F072EF19F069
:1032E00073EF19F018801850D8B479EF19F07BEF0C
:1032F00019F090EF19F01828D8A481EF19F083EF96
:1033000019F08BEF19F0000E016E000E026E000E28
:10331000036E000E046E038E000E046E98EF19F01B
:10332000000E016E000E026E000E036E000E046EA3
:103330000850800B111A08500824196E07AEA3EF2D
:1033400019F0A5EF19F0A6EF19F019801950D8B4AB
:10335000ACEF19F0AEEF19F0C3EF19F01928D8A4AB
:10336000B4EF19F0B6EF19F0BEEF19F0000E056ECC
:10337000000E066E000E076E000E086E078E000E21
:10338000086ECBEF19F0000E056E000E066E000EF3
:10339000076E000E086E0550061007100810D8A41E
:1033A000D4EF19F0D6EF19F0EEEF19F0000E016E20
:1033B000000E026E000E036E000E046E800E0312ED
:1033C0007F0E04121150041201C001F002C002F07D
:1033D00003C003F004C004F031EF1BF01850D8A470
:1033E000F4EF19F0F6EF19F000EF1AF0000E016E8D
:1033F000000E026E000E036E000E046E31EF1BF025
:10340000195018C009F00A6A095E000E0A5A7F0EA8
:103410000924126E000E0A20136E01C00DF002C0C6
:103420000EF003C00FF004C010F0000E016E000E8D
:10343000026E000E036E000E046E000E146E000E7F
:10344000156E000E166E000E176E000E196E61EFEF
:103450001AF01950D8B42FEF1AF031EF1AF048EFE4
:103460001AF0D8900D360E360F361036D890013639
:1034700002360336043617AE40EF1AF042EF1AF068
:1034800043EF1AF00180D8901436153616361736E9
:1034900005500D5C06500E5807500F580850105834
:1034A000D8A055EF1AF057EF1AF060EF1AF0178C0A
:1034B00005500D5E06500E5A07500F5A0850105A0C
:1034C000192A190E196467EF1AF069EF1AF029EF3B
:1034D0001AF00D500E100F101010D8B472EF1AF031
:1034E00074EF1AF08CEF1AF014808CEF1AF0D89069
:1034F000013602360336043617AE81EF1AF083EF39
:103500001AF084EF1AF00180D8901436153616366A
:1035100017361206D8A0130603AE91EF1AF093EFF8
:103520001AF077EF1AF0000E196E17AE9AEF1AF034
:103530009CEF1AF0C0EF1AF0FF0E1414096EFF0E84
:1035400015140A6EFF0E16140B6E7F0E17140C6EF8
:1035500009500A100B100C10D8B4B1EF1AF0B3EFE9
:103560001AF0B7EF1AF0010E196EC0EF1AF001A0B1
:10357000BCEF1AF0BEEF1AF0C0EF1AF0B3EF1AF07A
:103580001950D8B4C6EF1AF0C8EF1AF0ECEF1AF0E1
:10359000010E0126000E02220322042204A0D3EF12
:1035A0001AF0D5EF1AF0ECEF1AF001C009F002C0E2
:1035B0000AF003C00BF004C00CF00C340C320B32D8
:1035C0000A32093209C001F00AC002F00BC003F050
:1035D0000CC004F0124A132A13BEF7EF1AF013506E
:1035E00008E11228D8A0F7EF1AF0F9EF1AF004EF6B
:1035F0001BF0000E136E1268000E016E000E026EBC
:10360000000E036E000E046E13BE11EF1BF013507C
:1036100006E11204D8B00FEF1BF011EF1BF01FEF03
:103620001BF0000E136E000E126E000E016E000EE7
:10363000026E000E036E000E046E000E116E12C0BC
:1036400018F018A026EF1BF028EF1BF02BEF1BF053
:10365000038E2CEF1BF0039ED8901830046EE2EF1F
:1036600019F0120060C02AF061C02BF062C02CF08B
:1036700063C02DF01AC02AF01BC02BF01CC02CF028
:103680001DC02DF0810E1E6EFF0E1F6E2AC020F091
:103690002BC021F02CC022F02DC023F0180E56EFC5
:1036A0001BF0D8902332223221322032E82E51EF03
:1036B0001BF020501E24286E000E1F20296E29BEEC
:1036C0006BEF1BF0295009E1170E285CD8A06BEFB7
:1036D0001BF06DEF1BF077EF1BF01AC01AF01BC048
:1036E0001BF01CC01CF01DC01DF03AEF1CF029BEE1
:1036F0007CEF1BF07EEF1BF0EEEF1BF028C01EF0FE
:10370000FF0E1F6EFF0E206E7F0E216E000E226ECA
:103710001E668DEF1BF095EF1BF022342232213212
:1037200020321F321E2E88EF1BF01FC024F020C055
:1037300025F021C026F022C027F024502A141E6E46
:1037400025502B141F6E26502C14206E27502D143C
:10375000216E1E501F1020102110D8A4B2EF1BF0B4
:10376000B4EF1BF0B6EF1BF06DEF1BF02AC01EF09C
:103770002BC01FF02CC020F02DC021F0200EC6EF72
:103780001BF0D890213220321F321E32E82EC1EFBA
:103790001BF01E501F1020102110D8B4D2EF1BF0C8
:1037A000D4EF1BF0DCEF1BF024502A2625502B22EF
:1037B00026502C2227502D22241C1E6E251C1F6EE5
:1037C000261C206E271C216E1E502A161F502B16F9
:1037D00020502C1621502D1632EF1CF02AC01EF05E
:1037E0002BC01FF02CC020F02DC021F0200EFEEFCA
:1037F0001BF0D890213220321F321E32E82EF9EF12
:103800001BF01E501F1020102110D8A40AEF1CF02E
:103810000CEF1CF016EF1CF0000E2A6E000E2B6E43
:10382000000E2C6E000E2D6E32EF1CF0D8902A3454
:103830001E6E2B341F6E2C34206E2D34216E1E50C4
:103840001F1020102110D8B428EF1CF02AEF1CF014
:1038500032EF1CF0000E2A6E000E2B6E800E2C6EC6
:10386000BF0E2D6E2AC01AF02BC01BF02CC01CF00E
:103870002DC01DF012003C50D96EDA6A6F007FFF38
:10388000F6FF200EF76E000EF86E0800F550250AC0
:10389000D8A44DEF1CF04FEF1CF02EEF1DF03C5064
:1038A000D96EDA6ADF2A000E596E000E586E58C0C3
:1038B0005EF05A685B683C50D96EDA6A6F007FFF31
:1038C000F6FF200EF76E000EF86E0800F5502E0A77
:1038D000D8A46DEF1CF06FEF1CF07DEF1CF03C5096
:1038E000D96EDA6ADF2A3CC007F03DC008F00DEC63
:1038F00020F007C05AF008C05BF03C50D96EDA6A7D
:10390000DF50446E600013F1F6FF200EF76E000EDC
:10391000F86E08006F00D4FF43F09AEF1CF0442AC1
:10392000A9EF1CF06C0E436EA9EF1CF0000E436E65
:10393000A9EF1CF043504C0AD8B48FEF1CF02A0AB0
:10394000D8B492EF1CF00A0AD8B48FEF1CF096EFAF
:103950001CF0600013F1F6FF200EF76E000EF86EFB
:103960000800F550660AD8A4B8EF1CF0BAEF1CF0B6
:1039700028EF1DF0EEEF1CF03D50D96EDA6A6F00B3
:103980007CFF3EF0040EDF263E50D96EDA6A6F00EF
:1039900078FF3FF06F0078FF40F06F0078FF41F054
:1039A0006F0078FF42F0F9EF1CF03D50D96EDA6AF3
:1039B0006F007CFF3EF0040EDF263E50D96EDA6ABF
:1039C0006F0078FF3FF06F0078FF40F06F0078FFE6
:1039D00041F06F0078FF42F0F9EF1CF043504C0AC1
:1039E000D8B4D5EF1CF0200AD8B4BCEF1CF0F9EF26
:1039F0001CF03C50D96EDA6A4428DF6E19EF1DF0D6
:103A00003BC034F03FC035F040C036F041C037F025
:103A100042C038F0600013F1F6FF200EF76E000E82
:103A2000F86E08006F00D4FF39F009EC10F042EF97
:103A30001DF0600013F1F6FF200EF76E000EF86E19
:103A40000800F550660AD8B400EF1DF028EF1DF00D
:103A50003C50D96EDA6ADF2A42EF1DF03C50D96E35
:103A6000DA6A6F007FFFF6FF200EF76E000EF86E29
:103A70000800F550016E026A3BC003F068EC20F0CC
:103A800028EF1DF01200096E0950D8B44AEF1DF05E
:103A90004CEF1DF06EEF1DF004BE53EF1DF051EF23
:103AA0001DF06EEF1DF001C005F002C006F003C06E
:103AB00007F004C008F0051E061E071E081E052A92
:103AC000000E06220722082205C00BF006C00CF0EB
:103AD00007C00DF008C00EF076EF1DF001C00BF02E
:103AE00002C00CF003C00DF004C00EF00150021033
:103AF00003100410D8A47FEF1DF081EF1DF08BEFB1
:103B00001DF0000E016E000E026E000E036E000E20
:103B1000046E1CEF1EF0960E0A6E95EF1DF00A2A39
:103B2000D8900E320D320C320B32000E0B14056E93
:103B3000000E0C14066E000E0D14076EFE0E0E1411
:103B4000086E0550061007100810D8A4AAEF1DF043
:103B5000ACEF1DF08FEF1DF0BAEF1DF00A2A010E39
:103B60000B26000E0C220D220E22D8900E320D32A2
:103B70000C320B32000E0B14056E000E0C14066E88
:103B8000000E0D14076EFF0E0E14086E0550061081
:103B900007100810D8A4CFEF1DF0D1EF1DF0AEEF45
:103BA0001DF0D9EF1DF00A06D8900B360C360D36F5
:103BB0000E360DBEDEEF1DF0E0EF1DF0E8EF1DF05C
:103BC000020E0A60E6EF1DF0E8EF1DF0D3EF1DF0E6
:103BD0000AB0EDEF1DF0EFEF1DF0F0EF1DF00D9EC0
:103BE000D8900A320AC005F0066A076A086A05C05A
:103BF00008F0076A066A056A05500B1206500C1297
:103C000007500D1208500E120950D8B40AEF1EF0DA
:103C10000CEF1EF014EF1EF004BE13EF1EF011EFB8
:103C20001EF014EF1EF00E8E0BC001F00CC002F05F
:103C30000DC003F00EC004F01200033404340A6E09
:103C40000A50D8A426EF1EF028EF1EF032EF1EF027
:103C5000000E016E000E026E000E036E000E046E6A
:103C60009FEF1EF001C005F002C006F003C007F090
:103C700004C008F0200E42EF1EF0D8900832073240
:103C800006320532E82E3DEF1EF00550096E038E18
:103C9000FF0E0116FF0E0216FF0E0316000E04168D
:103CA000960E0A5E0ABE59EF1EF057EF1EF06FEF38
:103CB0001EF00A50800A970FD8B061EF1EF063EF34
:103CC0001EF065EF1EF028EF1EF0D890043203328C
:103CD000023201320A3E65EF1EF087EF1EF01F0E22
:103CE0000A6475EF1EF077EF1EF07FEF1EF028EFED
:103CF0001EF0D89001360236033604360A060A5002
:103D0000D8A485EF1EF087EF1EF079EF1EF0095062
:103D1000D8B48DEF1EF08FEF1EF097EF1EF0041E4B
:103D2000031E021E016C000E02220322042201C0A7
:103D300001F002C002F003C003F004C004F012005E
:103D4000000E2814306E000E2914316E800E2A14D5
:103D5000326E7F0E2B14336E305031103210331010
:103D6000D8A4B5EF1EF0B7EF1EF0BFEF1EF0000EA7
:103D7000286E000E296E000E2A6E000E2B6E000EAD
:103D80002C14306E000E2D14316E800E2E14326EF7
:103D90007F0E2F14336E3050311032103310D8A4F0
:103DA000D4EF1EF0D6EF1EF0DEEF1EF0000E2C6EEC
:103DB000000E2D6E000E2E6E000E2F6E2BAEE3EF5A
:103DC0001EF0E5EF1EF0EEEF1EF0286C291ED8B0B5
:103DD000292A2A1ED8B02A2A800E2B562FAEF3EF9E
:103DE0001EF0F5EF1EF0FEEF1EF02C6C2D1ED8B06D
:103DF0002D2A2E1ED8B02E2A800E2F56000E281ADD
:103E0000000E291A000E2A1A800E2B1A000E2C1AE8
:103E1000000E2D1A000E2E1A800E2F1A2C50285C20
:103E20002D5029582E502A582F502B58D8B01BEF00
:103E30001FF01DEF1FF020EF1FF0D89021EF1FF0B3
:103E4000D880120064C00BF065C00CF066C00DF0A5
:103E500067C00EF001C00BF002C00CF003C00DF003
:103E600004C00EF00BC005F00CC006F00DC007F04A
:103E70000EC008F0180E42EF1FF0D890083207323B
:103E800006320532E82E3DEF1FF00550096E0A6A32
:103E900009500A10D8A44FEF1FF051EF1FF071EF37
:103EA0001FF0D8900B34056E0C34066E0D34076E7F
:103EB0000E34086E0550061007100810D8A463EFE2
:103EC0001FF065EF1FF06BEF1FF0000E026E020E89
:103ED000016EA0EF1FF0000E026E030E016EA0EF48
:103EE0001FF009280A10D8A478EF1FF07AEF1FF00E
:103EF0009CEF1FF00BC005F00CC006F00DC007F0E2
:103F00000EC008F0090ED89005360636073608367A
:103F1000E82E83EF1FF00550061007100810D8B4E4
:103F200094EF1FF097EF1FF0010E98EF1FF0000EB7
:103F3000016E026AA0EF1FF0000E026E040E016E09
:103F400012002BEC22F0DCEC22F03E01F881F8B1FB
:103F5000ACEF1FF0AEEF1FF0A7EF1FF0EF516F00B7
:103F6000C0FB56F0576A56C057F0566A56105C6E42
:103F700057505D6E5CC001F05DC002F0000E02BEE5
:103F8000FF0E036E046E010E43EC1DF001C00FF036
:103F900002C010F003C011F004C012F0330E136E13
:103FA000330E146E530E156E3A0E166E3EEC17F06D
:103FB0000FC068F010C069F011C06AF012C06BF059
:103FC000BC0E0001F26F010EF36F68C0F4F069C01F
:103FD000F5F06AC0F6F06BC0F7F0C1EC22F0BC0E51
:103FE000016E0E0E026E13EC21F0040E096EBC0E73
:103FF0000A6E020E6AEC22F0030E576E8A0E566E9F
:10400000560EE82EFED7562EFCD7572EFAD74AEC7E
:1040100023F0A5EF1FF0FEEFFFF0000E0B6E000E79
:104020000A6E0750D96EDA6A6F007FFFF6FF200E26
:10403000F76E000EF86E0800F5502A0AD8A423EF98
:1040400020F025EF20F04DEF20F00750D96EDA6A0E
:10405000DF2A0850D96EDA6A020EDF26DF5CD96EDD
:10406000DA6A6F0078FF0AF06F0078FF0BF063EFF9
:1040700020F00AC001F00BC002F0000E046E0A0E20
:10408000036EF3EC22F0095001240A6E000E0220A8
:104090000B6E0750D96EDA6ADF2A0750D96EDA6ADA
:1040A0006F007FFFF6FF200EF76E000EF86E08001F
:1040B000F550D00F096E090E096461EF20F063EF2F
:1040C00020F039EF20F00AC007F00BC008F0120012
:1040D0000350D8B46EEF20F070EF20F078EF20F0AE
:1040E0000350D8A476EF20F078EF20F07DEF20F099
:1040F00001504EEC23F0BDEF20F00350D96EDA6A88
:104100000A0ED926DE50DE10D8B489EF20F08BEFEE
:1041100020F0A4EF20F00350D96EDA6A0A0ED926F7
:104120000350E16EE26A030EE126DE50E65CE650E3
:10413000800A086EDE50800A0858D8B0A2EF20F03E
:10414000A4EF20F0BDEF20F00350D96EDA6A030E21
:10415000D926DF50046E0350D96EDA6ADF5004248A
:10416000D96EDA6A600007F0DFFF0350D96EDA6AB1
:10417000030ED926DE2A000EDD221200000E0114E5
:10418000096E000E02140A6E800E03140B6E7F0E71
:1041900004140C6E09500A100B100C10D8A4D3EFA5
:1041A00020F0D5EF20F0DDEF20F0000E016E000EC4
:1041B000026E000E036E000E046E000E0514096EF2
:1041C000000E06140A6E800E07140B6E7F0E081484
:1041D0000C6E09500A100B100C10D8A4F2EF20F04E
:1041E000F4EF20F0FCEF20F0000E056E000E066EDE
:1041F000000E076E000E086E055001180FE1065004
:1042000002180CE10750031809E108500418D8B44B
:104210000CEF21F00EEF21F011EF21F0D89012EF0A
:1042200021F0D8801200000E046E000E036E1BEF0A
:1042300021F0034A042A01500324D96EDA6ADF50C0
:10424000D8A425EF21F027EF21F019EF21F02CEF72
:1042500021F0034A042A022A60000BF0F6FF200E28
:10426000F76E000EF86E01500324D96EDA6A08006A
:104270006F00D7FFDFFFDF50D8A441EF21F043EFFD
:1042800021F029EF21F0120011BE4BEF21F049EF90
:1042900021F04FEF21F0000E116E000E106E000E97
:1042A000146E000E136E5FEF21F0000E026E200EF2
:1042B000016E0EC003F068EC20F0134A142A10506F
:1042C000135C1450800A126E1150800A1258D8A044
:1042D0006CEF21F06EEF21F055EF21F00FC009F0E7
:1042E0000EC00AF04CEC22F0120004BE7AEF21F06E
:1042F0007CEF21F086EF21F001C001F002C002F056
:1043000003C003F004C004F09FEF21F001C005F0EA
:1043100002C006F003C007F004C008F0051E061E28
:10432000071E081E052A000E06220722082205C0C5
:1043300001F006C002F007C003F008C004F012004C
:10434000000E046E000E036EB9EF21F0000E066E33
:10435000000E056E054A062A065009E1A50E055C09
:10436000D8A0B5EF21F0B7EF21F0AAEF21F0034A72
:10437000042A0150035C02500458D8A0C2EF21F077
:10438000C4EF21F0A6EF21F01200000E2C1A000E4F
:104390002D1A000E2E1A800E2F1A28C001F029C0E7
:1043A00002F02AC003F02BC004F02CC005F02DC091
:1043B00006F02EC007F02FC008F0DEEC14F001C0AC
:1043C00028F002C029F003C02AF004C02BF012002C
:1043D00046C048F0F4EF21F045C03BF0480E3C6E7B
:1043E00047C03DF03BEC1CF0600023F1F6FF200ECF
:1043F000F76E000EF86E0800F5500009D8A403EF20
:1044000022F005EF22F0ECEF21F0000E466E000ED8
:10441000456E120002C007F001C006F01DEF22F049
:104420000750D96EDA6ADF50056E072A0650D96E3A
:10443000DA6A600017F0DFFF062A0306D8A0040638
:10444000032806E10428D8A428EF22F02AEF22F05E
:1044500010EF22F01200000E3A01406F000EC26E03
:104460003E01F851F30B0409F86FF889C2803A0154
:104470004081000E3E01F16F000EFF6F000EF06FE5
:10448000000EEF6F000EF66F000EF76F000EF36F69
:10449000000EF46FF88F1200000E0D6E000E0C6E01
:1044A0005BEF22F00BC001F0026A0AC003F068EC77
:1044B00020F00C4A0D2A09500C24D96EDA6ADF501C
:1044C0000B6E0B50D8A467EF22F069EF22F052EF89
:1044D00022F012000B6E020E0B6071EF22F073EFF0
:1044E00022F07CEF22F009500F0B80090C6E0C506B
:1044F0003BEC23F083EF22F009500F0BC0090C6E48
:104500000C503BEC23F00AC008F008EC23F012003A
:1045100001C004F0022A0204036E60000FF0F6FFEF
:10452000200EF76E000EF86E042A0404D96EDA6AC3
:1045300008006F00D7FFDFFFDF50D8A4A2EF22F002
:10454000A4EF22F08AEF22F01200015002100310B3
:104550000410D8B4AEEF22F0B0EF22F0B8EF22F0A2
:10456000000E011A000E021A000E031A800E041A21
:1045700001C001F002C002F003C003F004C004F067
:104580001200F40E496EF2C04AF0000E4E6E000E9C
:104590004D6E000E556E000E546E4A0E456EF3C001
:1045A00046F0490E476EE8EC21F00001F2514D242F
:1045B000D96EDA6ADF6A1200000E026E0F0E016E0B
:1045C000A0EC21F0000EC56E000EC36E010E3BEC98
:1045D00023F0380E3BEC23F00C0E3BEC23F0060EE0
:1045E0003BEC23F01200015003026F00CCFF05F0FA
:1045F0006F00D0FF06F001500402F350062602506F
:104600000302F350062605C001F006C002F01200B6
:1046100011EF23F00850D96EDA6ADF502CEC23F04A
:10462000082A0850D96EDA6ADF50D8A41AEF23F0AE
:104630001CEF23F00AEF23F0120000EE60F0660E8C
:10464000EE6AE806FDE100EE58F0070EEE6AE806B5
:10465000FDE10001A1EF1FF0076E60001FF0BDFF3C
:10466000BB80BB820000BB92000E026E010E016E89
:10467000A0EC21F01200076E60001FF0BDFFBB90A0
:10468000BB820000BB92000E026E030E016EA0EC16
:0E46900021F01200010E3BEC23F0120012008C
:020000040001F9
:04FFFC001DEF23F0E2
:020000040030CA
:0A000000F8FFFFFF9FFFFFFFFFFF67
:00000001FF
