:04000000FEEFFFF020
:1020000000010002000300040005000600070008AC
:102010000009000A0000000B00D744E3E6D4E6E71D
:1020200034F7F6001250800B1B6E12501224216EF2
:1020300011AE1DEF10F01FEF10F020EF10F0218017
:102040002150D8B426EF10F028EF10F03BEF10F03D
:102050002128D8A42EEF10F030EF10F038EF10F058
:10206000000E0F6E000E106E000E116E000E126E3E
:10207000118E43EF10F0000E0F6E000E106E000E6A
:10208000116E000E126E1650800B1B1A165016247D
:10209000206E15AE4EEF10F050EF10F051EF10F033
:1020A00020802050D8B457EF10F059EF10F06CEFAB
:1020B00010F02028D8A45FEF10F061EF10F069EF66
:1020C00010F0000E136E000E146E000E156E000E52
:1020D000166E158E74EF10F0000E136E000E146E57
:1020E000000E156E000E166E2050D8B47AEF10F068
:1020F0007CEF10F084EF10F02150D8A482EF10F0A4
:1021000084EF10F08EEF10F0000E0F6E000E106EC8
:10211000000E116E000E126E38EF12F015500F0205
:102120006F00CCFF26F06F00D0FF27F026501C6E0A
:102130001D6A1E6A1F6A2750226E236A246A256A56
:10214000145010026F00CCFF26F06F00D0FF27F074
:1021500026501C26000E1D221E221F22275022263A
:10216000000E232224222522135011026F00CCFFDF
:1021700026F06F00D0FF27F026501C26000E1D22EF
:102180001E221F2227502226000E2322242225222F
:102190001EC01FF01DC01EF01CC01DF01C6A135095
:1021A00010026F00CCFF26F06F00D0FF27F0265002
:1021B0001C2627501D22000E1E22000E1F22145026
:1021C0000F026F00CCFF26F06F00D0FF27F02650E3
:1021D0001C2627501D22000E1E22000E1F221EC08C
:1021E0001FF01DC01EF01CC01DF01C6A13500F0212
:1021F0006F00CCFF26F06F00D0FF27F026501C2682
:1022000027501D22000E1E22000E1F221550100204
:102210006F00CCFF26F06F00D0FF27F0265022265B
:1022200027502322000E2422000E252214501102D2
:102230006F00CCFF26F06F00D0FF27F0265022263B
:1022400027502322000E2422000E252215501102B1
:102250006F00CCFF26F06F00D0FF27F02650176EDE
:102260002750186E196A1A6A19C01AF018C019F0A6
:1022700017C018F0176A1750222618502322195039
:1022800024221A5025221CC017F01DC018F01EC0B1
:1022900019F01FC01AF0190E53EF11F0D8901A322E
:1022A000193218321732E82E4EEF11F0175022264D
:1022B00018502322195024221A5025221EC01FF024
:1022C0001DC01EF01CC01DF01C6A205021C017F05C
:1022D000186A1726000E1822820E1724266EFF0E8B
:1022E0001820276E89EF11F0D89022362336243635
:1022F00025361FAE7EEF11F080EF11F081EF11F067
:102300002280D8901C361D361E361F362606D8A0D1
:10231000270624AE8EEF11F090EF11F074EF11F05C
:10232000000E206E1FAE97EF11F099EF11F0BDEF88
:1023300011F0FF0E1C14176EFF0E1D14186EFF0E09
:102340001E14196E7F0E1F141A6E175018101910D4
:102350001A10D8B4AEEF11F0B0EF11F0B4EF11F0E5
:10236000010E206EBDEF11F022A0B9EF11F0BBEF0E
:1023700011F0BDEF11F0B0EF11F02050D8B4C3EF61
:1023800011F0C5EF11F0E9EF11F0010E2226000E59
:1023900023222422252225A0D0EF11F0D2EF11F024
:1023A000E9EF11F022C017F023C018F024C019F093
:1023B00025C01AF01A341A3219321832173217C0DF
:1023C00022F018C023F019C024F01AC025F0264AC4
:1023D000272A27BEF4EF11F0275008E12628D8A0BD
:1023E000F4EF11F0F6EF11F000EF12F0000E226E94
:1023F000000E236E800E246E7F0E256E2EEF12F0DF
:1024000027BE0DEF12F0275006E12604D8B00BEFDF
:1024100012F00DEF12F019EF12F0000E226E000E06
:10242000236E000E246E000E256E000E1B6E2EEF26
:1024300012F026C021F0FF0E2216FF0E23167F0E8B
:102440002416000E251621A028EF12F02AEF12F014
:102450002BEF12F0248ED8902130256E1B502512C0
:1024600022C00FF023C010F024C011F025C012F0DC
:1024700012002AEC16F0030E3E01F16F11EC15F07C
:1024800028C052F029C053F0040E3E01F16F11EC48
:1024900015F028C050F029C051F082EC15F00A0E5A
:1024A0004A184B10D8A457EF12F059EF12F0D2EFA0
:1024B00012F0000E416E010E406E4E684F684C687F
:1024C0004D68CC96030E2D6E8A0E2C6E560EE82E9D
:1024D000FED72C2EFCD72D2EFAD7CC86C7EF12F0C4
:1024E00082EC15F04BBE77EF12F079EF12F097EF18
:1024F00012F04EC04AF04FC04BF04E50190F2C6EE8
:102500006000B3F0F6FF08006F00D4FF2EF060000B
:10251000BBF0CDFF030E2D6E8A0E2C6E560EE82EEC
:10252000FED72C2EFCD72D2EFAD7000ECD6E4FBE27
:102530009CEF12F09EEF12F0C7EF12F04BBEA3EF2C
:1025400012F0A5EF12F0C7EF12F04CC04AF04DC0E8
:102550004BF04C50190F2C6E6000B3F0F6FF0800E2
:102560006F00D4FF2FF06000BFF0CDFF030E2D6E83
:102570008A0E2C6E560EE82EFED72C2EFCD72D2E52
:10258000FAD7000ECD6E000E416E000E406E400474
:102590004110D8B4CEEF12F0D0EF12F070EF12F07D
:1025A000D4EF12F04A684B68CCA8D9EF12F0DBEFF9
:1025B00012F0E1EF12F0000E436E010E426EE5EFF5
:1025C00012F0000E436E000E426E52045310D8A457
:1025D000ECEF12F0EEEF12F00AEF13F0464A472A42
:1025E00047BEFBEF12F0475008E14604D8A0FBEFCE
:1025F00012F0FDEF12F00AEF13F04650190F2C6E97
:102600006000B3F0F6FF08006F00D4FF30F0600008
:10261000C3F0CDFF50045110D8A411EF13F013EF05
:1026200013F02FEF13F0444A452A45BE20EF13F074
:10263000455008E14404D8A020EF13F022EF13F036
:102640002FEF13F04450190F2C6E6000B3F0F6FF1B
:1026500008006F00D4FF31F06000C7F0CDFF030E1B
:102660002D6E8A0E2C6E560EE82EFED72C2EFCD721
:102670002D2EFAD747BE48EF13F0475007E1040E5E
:10268000465CD8B046EF13F048EF13F056EF13F066
:1026900045BE54EF13F0455009E1040E445CD8A048
:1026A00054EF13F056EF13F058EF13F0EDEC15F074
:1026B0004E50461807E14F504718D8A462EF13F068
:1026C00064EF13F08EEF13F04C50441807E14D50B7
:1026D0004518D8A46EEF13F070EF13F08EEF13F0DF
:1026E00042044310D8A477EF13F079EF13F08EEF84
:1026F00013F0CC8A0B0E2D6E260E2C6E5E0EE82E7D
:10270000FED72C2EFCD72D2EFAD7CC9A000E476E72
:10271000000E466E000E456E000E446E42044310DD
:10272000D8A495EF13F097EF13F03BEF12F04E5053
:10273000461809E14F504718D8B4A1EF13F0A3EFA2
:1027400013F03BEF12F04C50441809E14D5045187E
:10275000D8B4ADEF13F0AFEF13F03BEF12F0EDECA8
:1027600015F03BEF12F0FEEFFFF0096E0950D8B400
:10277000BCEF13F0BEEF13F0E0EF13F004BEC5EFB3
:1027800013F0C3EF13F0E0EF13F001C005F002C047
:1027900006F003C007F004C008F0051E061E071E61
:1027A000081E052A000E06220722082205C00BF08B
:1027B00006C00CF007C00DF008C00EF0E8EF13F0F3
:1027C00001C00BF002C00CF003C00DF004C00EF00D
:1027D0000150021003100410D8A4F1EF13F0F3EF2E
:1027E00013F0FDEF13F0000E016E000E026E000EEE
:1027F000036E000E046E8EEF14F0960E0A6E07EF55
:1028000014F00A2AD8900E320D320C320B32000E20
:102810000B14056E000E0C14066E000E0D14076EE0
:10282000FE0E0E14086E0550061007100810D8A4EE
:102830001CEF14F01EEF14F001EF14F02CEF14F065
:102840000A2A010E0B26000E0C220D220E22D89011
:102850000E320D320C320B32000E0B14056E000ED0
:102860000C14066E000E0D14076EFF0E0E14086E8B
:102870000550061007100810D8A441EF14F043EFDC
:1028800014F020EF14F04BEF14F00A06D8900B363A
:102890000C360D360E360DBE50EF14F052EF14F01C
:1028A0005AEF14F0020E0A6058EF14F05AEF14F0C9
:1028B00045EF14F00AB05FEF14F061EF14F062EF2F
:1028C00014F00D9ED8900A320AC005F0066A076A15
:1028D000086A05C008F0076A066A056A05500B1207
:1028E00006500C1207500D1208500E120950D8B4A1
:1028F0007CEF14F07EEF14F086EF14F004BE85EF49
:1029000014F083EF14F086EF14F00E8E0BC001F07C
:102910000CC002F00DC003F00EC004F01200000E57
:102920000114096E000E02140A6E800E03140B6E61
:102930007F0E04140C6E09500A100B100C10D8A452
:10294000A4EF14F0A6EF14F0AEEF14F0000E016E39
:10295000000E026E000E036E000E046E000E0514D3
:10296000096E000E06140A6E800E07140B6E7F0EA1
:1029700008140C6E09500A100B100C10D8A4C3EFE9
:1029800014F0C5EF14F0CDEF14F0000E056E000E3C
:10299000066E000E076E000E086E04AED2EF14F045
:1029A000D4EF14F0DDEF14F0016C021ED8B0022A4F
:1029B000031ED8B0032A800E045608AEE2EF14F0CE
:1029C000E4EF14F0EDEF14F0056C061ED8B0062A03
:1029D000071ED8B0072A800E0856000E011A000EF6
:1029E000021A000E031A800E041A000E051A000EB9
:1029F000061A000E071A800E081A0550015C0650D0
:102A000002580750035808500458D8B00AEF15F080
:102A10000CEF15F00FEF15F0D89010EF15F0D880EF
:102A200012003E01F881F8B118EF15F01AEF15F019
:102A300013EF15F0EF516F00C0FB2AF02B6A2AC08C
:102A40002BF02A6A2A10486E2B50496E48C001F0BC
:102A500049C002F0000E02BEFF0E036E046E010EAE
:102A6000B5EC13F001C00FF002C010F003C011F07C
:102A700004C012F0000E136E000E146EA00E156E40
:102A80003A0E166E12EC10F00FC03CF010C03DF084
:102A900011C03EF012C03FF0CD0E016ECC0E026EA2
:102AA0004C0E036E3E0E046E3CC005F03DC006F0B9
:102AB0003EC007F03FC008F08FEC14F0D8B063EFD1
:102AC00015F065EF15F06BEF15F0000E296E000E96
:102AD000286E81EF15F0000E016E000E026E400EA2
:102AE000036E400E046E3CC005F03DC006F03EC0D3
:102AF00007F03FC008F08FEC14F0000E296E010EB5
:102B0000286E1200010EF66E20EE03F0170E09007B
:102B10006F00D7FFDEFFE806FAE2070EC36E0F0E66
:102B2000C26E000ECB6E000E1E6E000E1D6E1EBE1F
:102B3000A3EF15F01E5009E1030E1D5CD8A0A3EF12
:102B400015F0A5EF15F0A7EF15F0ECEF15F01DC08F
:102B500001F0080E026E012AB0EF15F0D89002368F
:102B6000012EAEEF15F00250CB6E070E016E7D0EFA
:102B7000E82EFED7012EFCD70000000E1C6E000EC2
:102B80001B6ECBB0C6EF15F0C8EF15F0D8EF15F0FF
:102B9000CBB2CDEF15F0CFEF15F0D8EF15F0CBB4E9
:102BA000D4EF15F0D6EF15F0D8EF15F0D8EF15F0FB
:102BB0001B4A1C2A1CBEE6EF15F01C5009E1040E4E
:102BC0001B5CD8A0E6EF15F0E8EF15F0C1EF15F0AB
:102BD0001D4A1E2A97EF15F01200190EF66E080016
:102BE0006F00D7FFCDFF000E046E000E036E080EBF
:102BF000CC6E030E026E8A0E016E560EE82EFED7C4
:102C0000012EFCD7022EFAD7000ECC6E030E026EF8
:102C10008A0E016E560EE82EFED7012EFCD7022E2C
:102C2000FAD7034A042A04BE1FEF16F0045009E144
:102C3000040E035CD8A01FEF16F021EF16F0F7EF9B
:102C400015F0000E476E000E466E000E456E000E2B
:102C5000446E1200000EC56E000E3A01706F000E39
:102C6000CD6E100EC46E000E606F0C0ECC6E030E97
:102C7000C26E0F0EC36E000E506F000ECB6ECC9A5C
:102C80003E01F851F30B0409F86FF889C286C28837
:102C9000C28A3A0140874089408B030E3E01F16FA2
:102CA000000EFF6F000EF06F000EEF6F000EF66F5C
:102CB000000EF76F000EF36F000EF46FF88F120026
:102CC000FC0EF66E2C0EF76E000EF86E00EE4AF05B
:102CD00010EE06F009006F00D7FFEEFFE550E1505F
:102CE000F9E100EE32F0180EEE6AE806FDE1000EA2
:102CF000F86E200EF76E000139EF12F0FFFF0300AF
:022D00000200CF
:020000040001F9
:04FFFC0060EF16F0AC
:020000040030CA
:0A000000F8FFFFFF9FFFFFFFFFFF67
:00000001FF
