:04000000FEEF7FF0A0
:101000000000CC9ECC8ECAA608EF08F00AEF08F0CC
:1010100010EF08F0000E026E010E016EDCEF08F01A
:10102000CAA415EF08F017EF08F01DEF08F0000E46
:10103000026E020E016EDCEF08F0CAA222EF08F089
:1010400024EF08F02AEF08F0000E026E030E016E86
:10105000DCEF08F0CAA02FEF08F031EF08F037EF0F
:1010600008F0000E026E0A0E016EDCEF08F0CC9E56
:10107000CA8CCAA63EEF08F040EF08F046EF08F031
:10108000000E026E040E016EDCEF08F0CAA44BEFF6
:1010900008F04DEF08F053EF08F0000E026E050E59
:1010A000016EDCEF08F0CAA258EF08F05AEF08F022
:1010B00060EF08F0000E026E060E016EDCEF08F025
:1010C000CAA065EF08F067EF08F06DEF08F0000EBA
:1010D000026E0B0E016EDCEF08F0CA9CCA8ACAA62B
:1010E00074EF08F076EF08F07CEF08F0000E026E67
:1010F000070E016EDCEF08F0CAA481EF08F083EF61
:1011000008F089EF08F0000E026E080E016EDCEFA9
:1011100008F0CAA28EEF08F090EF08F096EF08F002
:10112000000E026E090E016EDCEF08F0CAA09BEF04
:1011300008F09DEF08F0A3EF08F0000E026E0C0E11
:10114000016EDCEF08F0CA9ACA88CAA6AAEF08F0B6
:10115000ACEF08F0B2EF08F0000E026E140E016E54
:10116000DCEF08F0CAA4B7EF08F0B9EF08F0BFEF62
:1011700008F0000E026E000E016EDCEF08F0CAA24D
:10118000C4EF08F0C6EF08F0CCEF08F0000E026ED6
:10119000150E016EDCEF08F0CAA0D1EF08F0D3EF16
:1011A00008F0D9EF08F0000E026E0D0E016EDCEFB4
:1011B00008F0CA98016802681200000ECA6E000E9C
:1011C000BA6E000E3A01406F0F0EC26E000ECD6E69
:1011D000000EBD6E000E706F000EC56E000ECC6E60
:1011E000000EBC6E000E606F000EC46E0F681068BB
:1011F00013681468116812680B680C687CEC0AF0BC
:1012000003040410D8A407EF09F009EF09F09AEFDE
:1012100009F00AEC0AF003040410D8A412EF09F054
:1012200014EF09F09AEF09F045EC0AF003040410FA
:10123000D8A41DEF09F01FEF09F09AEF09F051EF64
:1012400009F0115013240D6E125014200E6E9AEFF7
:1012500009F01150135C0D6E125014580E6E9AEF77
:1012600009F013C001F014C002F011C003F012C065
:1012700004F0C9EC0AF001C00DF002C00EF09AEFC4
:1012800009F013C001F014C002F011C003F012C045
:1012900004F0A8EC09F001C00DF002C00EF09AEFC6
:1012A00009F00FC009F010C00AF00A50000AD8B4C3
:1012B0005CEF09F09AEF09F009500A0AD8B421EF5F
:1012C00009F0010AD8B429EF09F0070AD8B431EFC0
:1012D00009F0010AD8B441EF09F09AEF09F001ECE6
:1012E00008F001C00BF002C00CF0150E0B180C102A
:1012F000D8A47DEF09F07FEF09F098EF09F0000E18
:10130000CD6E600037F0CDFF070E096E7D0EE82E22
:10131000FED7092EFCD700000F6810681368146808
:10132000116812680B680C68000ECD6EFEEF08F0B5
:101330000B680C680B2808E10C28D8B4A2EF09F060
:10134000A4EF09F06FEF09F0FEEF08F0FEEF7FF079
:10135000000E066E04BEB1EF09F0AFEF09F0B7EF73
:1013600009F0036C041ED8B0042A010E066E02BEFA
:10137000BEEF09F0BCEF09F0C4EF09F0016C021EEA
:10138000D8B0022A010E061A000E086E000E076E73
:1013900003500410D8B4CFEF09F0D1EF09F0F9EF02
:1013A00009F0010E056ED9EF09F0D8900336043626
:1013B000052A04AEDEEF09F0E0EF09F0D5EF09F001
:1013C000D890073608360350015C04500258D8A064
:1013D000ECEF09F0EEEF09F0F3EF09F00350015ED6
:1013E0000450025A0780D89004320332052EE0EFF1
:1013F00009F00650D8B4FFEF09F001EF0AF005EF4D
:101400000AF0076C081ED8B0082A07C001F008C00F
:1014100002F0120012EF0AF001EC08F001C00FF028
:1014200002C010F00F2808E11028D8B41AEF0AF013
:101430001CEF0AF00CEF0AF010BE28EF0AF0105073
:1014400009E10A0E0F5CD8A028EF0AF02AEF0AF093
:101450003EEF0AF010BE38EF0AF0105007E1140E0C
:101460000F5CD8B036EF0AF038EF0AF03EEF0AF022
:10147000000E046E010E036E44EF0AF00F68106850
:10148000000E046E000E036E12004DEF0AF001EC28
:1014900008F001C011F002C012F0112808E1122872
:1014A000D8B455EF0AF057EF0AF047EF0AF012BE32
:1014B0005CEF0AF05EEF0AF075EF0AF012BE6CEF17
:1014C0000AF0125007E10A0E115CD8B06AEF0AF078
:1014D0006CEF0AF075EF0AF0000ECD6ECD82000EB3
:1014E000046E010E036E7BEF0AF011681268000EA5
:1014F000046E000E036E120084EF0AF001EC08F097
:1015000001C013F002C014F0132808E11428D8B465
:101510008CEF0AF08EEF0AF07EEF0AF014BE93EF24
:101520000AF095EF0AF0ACEF0AF014BEA3EF0AF050
:10153000145007E10A0E135CD8B0A1EF0AF0A3EF34
:101540000AF0ACEF0AF0000ECD6ECD80000E046EF6
:10155000010E036EB2EF0AF013681468000E046EF9
:10156000000E036E1200BC0EF66E150EF76E000E26
:10157000F86E00EE0DF010EE08F009006F00D7FFD6
:10158000EEFFE550E150F9E1000EF86E0001DDEFED
:1015900008F0015003026F00CCFF05F06F00D0FF90
:1015A00006F001500402F350062602500302F350E5
:1015B000062605C001F006C002F01200FFFFFFFF83
:0415C000FFFFFFFF2B
:04FFFC00B3EF0AF065
:020000040030CA
:0A000000F8FFFFFF9FFFFFFFFFFF67
:00000001FF
