:04000000FEEFFFF020
:10200000004825000000000000001A280000000021
:10201000D0260000000000000000000000000000CA
:1020200000000000000000000000000000000000B0
:10203000000000000000000000000000003E27003B
:102040001C2700FA260000000052657365740D0A13
:072050000025640D0A0000E9
:102058004750D96EDA6A6F007FFFF6FF200EF76EE1
:10206800000EF86E0800F550250AD8A43EEF10F0CF
:1020780040EF10F003EF11F04750D96EDA6ADF2A0B
:10208800000E346E000E336E33C039F03568366892
:102098004750D96EDA6ADF504B6E60002FF1F6FFB9
:1020A800200EF76E000EF86E0800F550640AD8B4DA
:1020B80060EF10F062EF10F073EF10F060002FF196
:1020C800F6FF200EF76E000EF86E0800F550690A4C
:1020D800D8A471EF10F073EF10F0FDEF10F0485036
:1020E800D96EDA6A020EDF26DF5CD96EDA6A6F0013
:1020F80078FF4CF06F0078FF4DF04750D96EDA6AE0
:102108004B28DF6E200E506E4DBE8DEF10F090EF15
:1021180010F0010E91EF10F0000E4A6E500650506C
:10212800010FD96EDA6A4CC03AF04DC03BF0000E90
:102138003D6E0A0E3C6E4CEC12F03AC040F03BC0CB
:1021480041F04EEC13F04050300FDF6E4CC03AF0C7
:102158004DC03BF0000E3D6E0A0E3C6EEAEC11F0ED
:102168003AC04CF03BC04DF04C504D10D8B4BFEFC6
:1021780010F0C1EF10F0C9EF10F05050D8A4C7EF1D
:1021880010F0C9EF10F092EF10F05050D8B4CFEF24
:1021980010F0D1EF10F0F2EF10F04A50D8B4D7EFAA
:1021A80010F0D9EF10F0F2EF10F050065050010F78
:1021B800D96EDA6A2D0EDF6EF2EF10F05050010F73
:1021C800D96EDA6ADF50496E49503C6E3D6A45C0A7
:1021D8003EF046C03FF01AEC11F0502A200E50187D
:1021E800D8A4F9EF10F0FBEF10F0E2EF10F019EFC0
:1021F80011F04750D96EDA6ADF2A19EF11F047500B
:10220800D96EDA6A6F007FFFF6FF200EF76E000EB8
:10221800F86E0800F5503C6E3D6A45C03EF046C079
:102228003FF01AEC11F0FDEF10F012003E503F1095
:10223800D8B421EF11F023EF11F02CEF11F03E503C
:102248003F10D8A42AEF11F02CEF11F031EF11F064
:102258003C50B0EC13F085EF11F020EE0AF03E5040
:10226800D9263F50DA22DE50DE10D8B43EEF11F006
:1022780040EF11F05BEF11F020EE0AF03E50D92646
:102288003F50DA2210EE03F03E50E1263F50E222A2
:10229800DE50E65CE650800A446EDE50800A445800
:1022A800D8B059EF11F05BEF11F085EF11F020EE87
:1022B80003F03E50D9263F50DA226F0078FF40F0F5
:1022C8006F0074FF41F06000FBF0D9FF6000FFF081
:1022D800DAFF6F0078FF42F06F0074FF43F0405060
:1022E8004224D96E41504320DA6E6000F3F0DFFFDC
:1022F80020EE03F03E50D9263F50DA22DE2A000EA7
:10230800DD221200000EBA6E000EBB6E000EBC6E0F
:10231800000EBD6E000EBE6EC268FD0EC36EC468B0
:10232800FE0EC56E070EC66E3A014069FD0E506F6F
:102338006069FC0E706F070E806F000E416F000E13
:10234800516F000E616F000E716F000E816F000EED
:10235800426F000E526F000E626F000E726F000E19
:10236800826F4369536963697369070E836F4469B0
:102378005469646974690F0E846F000E5A6F000EF9
:102388005B6F000E6A6F000E6B6F000E7A6F000EA7
:102398007B6F190EE86F160E186F000E456F000E52
:1023A800466F000E476F000E556F000E566F000EF9
:1023B800576F000E656F000E666F000E676F000E98
:1023C800856F000E866F000E876F1200000E3F6E3D
:1023D8003DBEF3EF11F0F1EF11F0F9EF11F03C6CA5
:1023E8003D1ED8B03D2A010E3F6E3BBE00EF12F0F5
:1023F800FEEF11F006EF12F03A6C3B1ED8B03B2A04
:10240800010E3F1A000E416E000E406E3C503D100A
:10241800D8B411EF12F013EF12F03BEF12F0010EE7
:102428003E6E1BEF12F0D8903C363D363E2A3DAE4C
:1024380020EF12F022EF12F017EF12F0D89040368A
:1024480041363C503A5C3D503B58D8A02EEF12F034
:1024580030EF12F035EF12F03C503A5E3D503B5AE7
:102468004080D8903D323C323E2E22EF12F03F5051
:10247800D8B441EF12F043EF12F047EF12F0406C7E
:10248800411ED8B0412A40C03AF041C03BF012008A
:10249800000E3F6E3BBE55EF12F053EF12F05BEFAC
:1024A80012F03A6C3B1ED8B03B2A010E3F6E3DBE7F
:1024B80062EF12F060EF12F066EF12F03C6C3D1E16
:1024C800D8B03D2A3C503D10D8B46DEF12F06FEFF4
:1024D80012F093EF12F0010E3E6E77EF12F0D890E3
:1024E8003C363D363E2A3DAE7CEF12F07EEF12F0D0
:1024F80073EF12F03C503A5C3D503B58D8A087EF40
:1025080012F089EF12F08DEF12F03C503A5E3D5018
:102518003B5AD8903D323C323E2E7EEF12F03F506F
:10252800D8B499EF12F09BEF12F09FEF12F03A6CCB
:102538003B1ED8B03B2A3AC03AF03BC03BF01200F1
:10254800000E3D01D06F000ED26F000ED46F000E4A
:10255800D66F000ED86FB00EDA6F800EDB6F000EEC
:10256800DC6F820EDD6F060EDE6F2E0EDF6F000E43
:10257800E06F800EE16F000EE26F000E3A6E000E03
:102588003B6E000E3C6E9FEC13F0000E3A6E000E90
:102598003B6E000E3C6E8EEC13F0000E3A6E000E91
:1025A8003B6E000E3C6E7DEC13F0000E386E000E94
:1025B800376E1200000E5D6E010E5C6E510E566E87
:1025C8005CC057F05DC058F0CDEC13F0520E5B6E56
:1025D8002B0E5A6E000EE82EFED75A2EFCD75B2E15
:1025E800FAD700D05C4A5D2A5DBE04EF13F05D5057
:1025F80009E1650E5C5CD8A004EF13F006EF13F058
:10260800E2EF12F0120053C055F015EF13F051C06D
:1026180045F052C046F0550E476E54C048F02CECB9
:1026280010F0600057F1F6FF200EF76E000EF86EFE
:102638000800F5500009D8A424EF13F026EF13F092
:102648000BEF13F0000E526E000E516E1200D29A6C
:102658003901A191D280000E3A6E000E3B6E000E39
:102668003C6E06EC14F03901A591D282000E3A6E48
:10267800000E3B6E000E3C6EFFEC13F03901A79B79
:10268800D284000E3A6E000E3B6E000E3C6EF8ECE3
:1026980013F0120041BE53EF13F055EF13F05BEF48
:1026A80013F040C040F041C041F067EF13F040C064
:1026B80042F041C043F0421E431E424A432A42C0F0
:1026C80040F043C041F01200000E3A6E3D01DFAB0E
:1026D80070EF13F072EF13F07BEF13F0DAAB77EFD4
:1026E80013F079EF13F07BEF13F0010E3A6E3A50C6
:1026F80012003A503B103C10D8B485EF13F087EF26
:1027080013F08DEF13F03AC021F03BC022F03CC02B
:1027180023F012003A503B103C10D8B496EF13F057
:1027280098EF13F09EEF13F03AC024F03BC025F069
:102738003CC026F012003A503B103C10D8B4A7EF2A
:1027480013F0A9EF13F0AFEF13F03AC027F03BC036
:1027580028F03CC029F012003B6E68EC13F0000929
:10276800D8B4B9EF13F0BBEF13F0B1EF13F03B504F
:102778000DEC14F01200EFEC13F0A4EC12F0490E7B
:10278800566ECDEC13F0DEEC12F0C3EF13F0FEEF53
:10279800FFF0570E596E000E516E000E526E56C065
:1027A80053F0590E546E07EC13F01200600E390105
:1027B800D96F000EDB6F000EDD6F080EDF6F000EA5
:1027C800DE6F120000EE01F0390EEE6AE806FDE158
:1027D8000001BFEF13F0DAEC13F086EC11F0A4EC73
:1027E80012F02BEC13F012003AC02AF03BC02BF089
:1027F8003CC02CF012003AC02DF03BC02EF03CC07B
:102808002FF012003AC030F03BC031F03CC032F03B
:0C28180012003A6E6000EBF0D2FD1200DE
:020000040001F9
:04FFFC00E6EF13F029
:020000040030CA
:0A0000008FFFF7FF9FFFFFFFFFFFD8
:00000001FF
